{
  "contractName": "Med_ETrack",
  "abi": [
    {
      "constant": true,
      "inputs": [
        {
          "name": "",
          "type": "address"
        }
      ],
      "name": "careGiversMap",
      "outputs": [
        {
          "name": "",
          "type": "bool"
        }
      ],
      "payable": false,
      "stateMutability": "view",
      "type": "function"
    },
    {
      "constant": true,
      "inputs": [
        {
          "name": "",
          "type": "address"
        }
      ],
      "name": "patientsMap",
      "outputs": [
        {
          "name": "name",
          "type": "string"
        }
      ],
      "payable": false,
      "stateMutability": "view",
      "type": "function"
    },
    {
      "anonymous": false,
      "inputs": [
        {
          "indexed": false,
          "name": "patient",
          "type": "address"
        }
      ],
      "name": "AddedPatient",
      "type": "event"
    },
    {
      "anonymous": false,
      "inputs": [
        {
          "indexed": false,
          "name": "caregiver",
          "type": "address"
        }
      ],
      "name": "AddedCareGiver",
      "type": "event"
    },
    {
      "anonymous": false,
      "inputs": [
        {
          "indexed": false,
          "name": "caregiver",
          "type": "address"
        },
        {
          "indexed": false,
          "name": "Patient",
          "type": "address"
        }
      ],
      "name": "AddedCareGiverToPatient",
      "type": "event"
    },
    {
      "constant": false,
      "inputs": [
        {
          "name": "_name",
          "type": "string"
        }
      ],
      "name": "newPatient",
      "outputs": [],
      "payable": false,
      "stateMutability": "nonpayable",
      "type": "function"
    },
    {
      "constant": false,
      "inputs": [],
      "name": "newCareGiver",
      "outputs": [],
      "payable": false,
      "stateMutability": "nonpayable",
      "type": "function"
    },
    {
      "constant": false,
      "inputs": [
        {
          "name": "_patient",
          "type": "address"
        }
      ],
      "name": "addCaregiverToPatient",
      "outputs": [],
      "payable": false,
      "stateMutability": "nonpayable",
      "type": "function"
    }
  ],
  "bytecode": "0x608060405234801561001057600080fd5b50610af8806100206000396000f30060806040526004361061006d576000357c0100000000000000000000000000000000000000000000000000000000900463ffffffff168063230aac0a14610072578063329c0f0f146100db5780638d24abc814610136578063c223be4b146101f2578063eb8f587914610235575b600080fd5b34801561007e57600080fd5b506100d9600480360381019080803590602001908201803590602001908080601f016020809104026020016040519081016040528093929190818152602001838380828437820191505050505050919291929050505061024c565b005b3480156100e757600080fd5b5061011c600480360381019080803573ffffffffffffffffffffffffffffffffffffffff169060200190929190505050610421565b604051808215151515815260200191505060405180910390f35b34801561014257600080fd5b50610177600480360381019080803573ffffffffffffffffffffffffffffffffffffffff169060200190929190505050610441565b6040518080602001828103825283818151815260200191508051906020019080838360005b838110156101b757808201518184015260208101905061019c565b50505050905090810190601f1680156101e45780820380516001836020036101000a031916815260200191505b509250505060405180910390f35b3480156101fe57600080fd5b50610233600480360381019080803573ffffffffffffffffffffffffffffffffffffffff1690602001909291905050506104f7565b005b34801561024157600080fd5b5061024a61078f565b005b610254610a13565b6103476000803373ffffffffffffffffffffffffffffffffffffffff1673ffffffffffffffffffffffffffffffffffffffff1681526020019081526020016000206000018054600181600116156101000203166002900480601f01602080910402602001604051908101604052809291908181526020018280546001816001161561010002031660029004801561032c5780601f106103015761010080835404028352916020019161032c565b820191906000526020600020905b81548152906001019060200180831161030f57829003601f168201915b505050505060206040519081016040528060008152506108a4565b151561035257600080fd5b818160000181905250806000803373ffffffffffffffffffffffffffffffffffffffff1673ffffffffffffffffffffffffffffffffffffffff16815260200190815260200160002060008201518160000190805190602001906103b6929190610a27565b509050507f0d91b321c28c7b9fb66c9ba5ff33e899a86f5f6b5e28e9ff106900d66844bc5633604051808273ffffffffffffffffffffffffffffffffffffffff1673ffffffffffffffffffffffffffffffffffffffff16815260200191505060405180910390a15050565b60016020528060005260406000206000915054906101000a900460ff1681565b6000602052806000526040600020600091509050806000018054600181600116156101000203166002900480601f0160208091040260200160405190810160405280929190818152602001828054600181600116156101000203166002900480156104ed5780601f106104c2576101008083540402835291602001916104ed565b820191906000526020600020905b8154815290600101906020018083116104d057829003601f168201915b5050505050905081565b6105ea6000808373ffffffffffffffffffffffffffffffffffffffff1673ffffffffffffffffffffffffffffffffffffffff1681526020019081526020016000206000018054600181600116156101000203166002900480601f0160208091040260200160405190810160405280929190818152602001828054600181600116156101000203166002900480156105cf5780601f106105a4576101008083540402835291602001916105cf565b820191906000526020600020905b8154815290600101906020018083116105b257829003601f168201915b505050505060206040519081016040528060008152506108a4565b1580156106405750600160003373ffffffffffffffffffffffffffffffffffffffff1673ffffffffffffffffffffffffffffffffffffffff16815260200190815260200160002060009054906101000a900460ff165b80156106535750610651813361097d565b155b151561065e57600080fd5b60016000808373ffffffffffffffffffffffffffffffffffffffff1673ffffffffffffffffffffffffffffffffffffffff16815260200190815260200160002060010160003373ffffffffffffffffffffffffffffffffffffffff1673ffffffffffffffffffffffffffffffffffffffff16815260200190815260200160002060006101000a81548160ff0219169083151502179055507fa9b6fccca328a6890831d0f633e520dbdc3f8e5489eb06c2c1c05acaf5094bbc3382604051808373ffffffffffffffffffffffffffffffffffffffff1673ffffffffffffffffffffffffffffffffffffffff1681526020018273ffffffffffffffffffffffffffffffffffffffff1673ffffffffffffffffffffffffffffffffffffffff1681526020019250505060405180910390a150565b600160003373ffffffffffffffffffffffffffffffffffffffff1673ffffffffffffffffffffffffffffffffffffffff16815260200190815260200160002060009054906101000a900460ff161515156107e857600080fd5b60018060003373ffffffffffffffffffffffffffffffffffffffff1673ffffffffffffffffffffffffffffffffffffffff16815260200190815260200160002060006101000a81548160ff0219169083151502179055507f8bb4d7c3e1f3ab9d296812329f23c60219a5655c0358f53be7d85b261601291133604051808273ffffffffffffffffffffffffffffffffffffffff1673ffffffffffffffffffffffffffffffffffffffff16815260200191505060405180910390a1565b6000816040518082805190602001908083835b6020831015156108dc57805182526020820191506020810190506020830392506108b7565b6001836020036101000a038019825116818451168082178552505050505050905001915050604051809103902060001916836040518082805190602001908083835b602083101515610943578051825260208201915060208101905060208303925061091e565b6001836020036101000a03801982511681845116808217855250505050505090500191505060405180910390206000191614905092915050565b60008060008473ffffffffffffffffffffffffffffffffffffffff1673ffffffffffffffffffffffffffffffffffffffff16815260200190815260200160002060010160008373ffffffffffffffffffffffffffffffffffffffff1673ffffffffffffffffffffffffffffffffffffffff16815260200190815260200160002060009054906101000a900460ff16905092915050565b602060405190810160405280606081525090565b828054600181600116156101000203166002900490600052602060002090601f016020900481019282601f10610a6857805160ff1916838001178555610a96565b82800160010185558215610a96579182015b82811115610a95578251825591602001919060010190610a7a565b5b509050610aa39190610aa7565b5090565b610ac991905b80821115610ac5576000816000905550600101610aad565b5090565b905600a165627a7a7230582047eb6b1346cb84f3a45e5d1c9f84f684988b2a53e209da6debfa54f98b69b27e0029",
  "source": "pragma solidity ^0.4.24;\n\ncontract Med_ETrack {\n\n   //mapping (address => uint) public patientNam;\n   mapping (address => Patient) public patientsMap;\n   mapping (address => bool) public careGiversMap;\n\n   struct Medication {\n      string name;\n      uint dosage;\n   }\n   \n   struct Patient {\n      string name;\n      mapping (address => bool) caregivers;\n      mapping (uint => Medication) medications;\n   }\n\n   function verifiy(address patient, address caregiver) internal returns(bool){\n      return patientsMap[patient].caregivers[caregiver]; //fix\n   }\n\n\n   event AddedPatient(address patient);\n\n   function newPatient(string _name) public {\n      //if patient not in map then add patient\n      require(strcmp(patientsMap[msg.sender].name,\"\"));\n      Patient memory patient;\n      patient.name = _name;\n      patientsMap[msg.sender] = patient;\n\n      emit AddedPatient(msg.sender);\n   } \n\n   event AddedCareGiver(address caregiver);\n   \n   function newCareGiver() public {\n      //if caregiver not in map then add caregiver\n      require(!careGiversMap[msg.sender]);\n      careGiversMap[msg.sender] = true;\n\n      emit AddedCareGiver(msg.sender);\n   }\n\n   event AddedCareGiverToPatient(address caregiver, address Patient);\n\n   function addCaregiverToPatient(address _patient) public {\n      // if sender is a caretaker and patient exits\n      // then add caretaker to patient.careGivers\n      require(!strcmp(patientsMap[_patient].name,\"\")\n\t      && careGiversMap[msg.sender]\n\t      && !verifiy(_patient, msg.sender));\n      patientsMap[_patient].caregivers[msg.sender] = true;\n\n      emit AddedCareGiverToPatient(msg.sender, _patient);\n   }\n\n   function strcmp (string a, string b) internal view returns (bool){\n       return keccak256(a) == keccak256(b);\n   }\n\n   /*\n   function removeCaregiverFromPatient(string _patient) public {\n      \n   }\n   \n\n   function addMedicationToPatient(string _patient, string _med) public {\n      \n   }\n\n   function removeMediacationFromPatient(string _patient, string _med) public {\n\n   }\n   \n   function viewMedication(string _patient) public returns(Medication[]){\n\n   }\n   \n   function viewCareGiver(string _patient) public returns(CareGiver[]){\n\n   } */\n\n}\n",
  "sourcePath": "/home/drakemp/Dropbox/Med-ETrack2/contracts/med-Etrack.sol",
  "compiler": {
    "name": "solc",
    "version": "0.4.24+commit.e67f0147.Emscripten.clang"
  },
  "schemaVersion": "2.0.1",
  "updatedAt": "2018-07-07T20:58:55.082Z"
}