{
  "contractName": "Med_ETrack",
  "abi": [
    {
      "constant": true,
      "inputs": [
        {
          "name": "",
          "type": "address"
        }
      ],
      "name": "careGiversMap",
      "outputs": [
        {
          "name": "",
          "type": "bool"
        }
      ],
      "payable": false,
      "stateMutability": "view",
      "type": "function"
    },
    {
      "constant": true,
      "inputs": [
        {
          "name": "",
          "type": "address"
        }
      ],
      "name": "patientsMap",
      "outputs": [
        {
          "name": "name",
          "type": "string"
        }
      ],
      "payable": false,
      "stateMutability": "view",
      "type": "function"
    },
    {
      "anonymous": false,
      "inputs": [
        {
          "indexed": false,
          "name": "patient",
          "type": "address"
        }
      ],
      "name": "AddedPatient",
      "type": "event"
    },
    {
      "anonymous": false,
      "inputs": [
        {
          "indexed": false,
          "name": "sender",
          "type": "address"
        }
      ],
      "name": "AddedCareGiver",
      "type": "event"
    },
    {
      "anonymous": false,
      "inputs": [
        {
          "indexed": false,
          "name": "caregiver",
          "type": "address"
        },
        {
          "indexed": false,
          "name": "Patient",
          "type": "address"
        }
      ],
      "name": "AddedCareGiverToPatient",
      "type": "event"
    },
    {
      "anonymous": false,
      "inputs": [
        {
          "indexed": false,
          "name": "caregiver",
          "type": "address"
        },
        {
          "indexed": false,
          "name": "_patient",
          "type": "address"
        }
      ],
      "name": "RemovedCareGiverToPatient",
      "type": "event"
    },
    {
      "anonymous": false,
      "inputs": [
        {
          "indexed": false,
          "name": "_caregiver",
          "type": "address"
        },
        {
          "indexed": false,
          "name": "_patient",
          "type": "address"
        },
        {
          "indexed": false,
          "name": "_med",
          "type": "string"
        },
        {
          "indexed": false,
          "name": "_dosage",
          "type": "uint256"
        }
      ],
      "name": "AddedMedicationToPatient",
      "type": "event"
    },
    {
      "anonymous": false,
      "inputs": [
        {
          "indexed": false,
          "name": "_caregiver",
          "type": "address"
        },
        {
          "indexed": false,
          "name": "_patient",
          "type": "address"
        },
        {
          "indexed": false,
          "name": "_med",
          "type": "string"
        },
        {
          "indexed": false,
          "name": "_dosage",
          "type": "uint256"
        }
      ],
      "name": "RemovedMedicationToPatient",
      "type": "event"
    },
    {
      "anonymous": false,
      "inputs": [
        {
          "indexed": false,
          "name": "_patient",
          "type": "address"
        }
      ],
      "name": "RemovedPatient",
      "type": "event"
    },
    {
      "anonymous": false,
      "inputs": [
        {
          "indexed": false,
          "name": "_caregiver",
          "type": "address"
        }
      ],
      "name": "RemovedCareGiver",
      "type": "event"
    },
    {
      "constant": false,
      "inputs": [
        {
          "name": "sender",
          "type": "address"
        },
        {
          "name": "_name",
          "type": "string"
        }
      ],
      "name": "newPatient",
      "outputs": [],
      "payable": false,
      "stateMutability": "nonpayable",
      "type": "function"
    },
    {
      "constant": false,
      "inputs": [
        {
          "name": "sender",
          "type": "address"
        }
      ],
      "name": "newCareGiver",
      "outputs": [],
      "payable": false,
      "stateMutability": "nonpayable",
      "type": "function"
    },
    {
      "constant": false,
      "inputs": [
        {
          "name": "_caregiver",
          "type": "address"
        },
        {
          "name": "_patient",
          "type": "address"
        }
      ],
      "name": "addCareGiverToPatient",
      "outputs": [],
      "payable": false,
      "stateMutability": "nonpayable",
      "type": "function"
    },
    {
      "constant": false,
      "inputs": [
        {
          "name": "_caregiver",
          "type": "address"
        },
        {
          "name": "_patient",
          "type": "address"
        }
      ],
      "name": "removeCareGiverFromPatient",
      "outputs": [],
      "payable": false,
      "stateMutability": "nonpayable",
      "type": "function"
    },
    {
      "constant": false,
      "inputs": [
        {
          "name": "_caregiver",
          "type": "address"
        },
        {
          "name": "_patient",
          "type": "address"
        },
        {
          "name": "_med",
          "type": "string"
        },
        {
          "name": "_dosage",
          "type": "uint256"
        }
      ],
      "name": "addMedicationToPatient",
      "outputs": [],
      "payable": false,
      "stateMutability": "nonpayable",
      "type": "function"
    },
    {
      "constant": false,
      "inputs": [
        {
          "name": "_caregiver",
          "type": "address"
        },
        {
          "name": "_patient",
          "type": "address"
        },
        {
          "name": "_med",
          "type": "string"
        }
      ],
      "name": "removeMediacationFromPatient",
      "outputs": [],
      "payable": false,
      "stateMutability": "nonpayable",
      "type": "function"
    },
    {
      "constant": false,
      "inputs": [
        {
          "name": "_patient",
          "type": "address"
        }
      ],
      "name": "removePatient",
      "outputs": [],
      "payable": false,
      "stateMutability": "nonpayable",
      "type": "function"
    },
    {
      "constant": false,
      "inputs": [
        {
          "name": "_caregiver",
          "type": "address"
        }
      ],
      "name": "removeCareGiver",
      "outputs": [],
      "payable": false,
      "stateMutability": "nonpayable",
      "type": "function"
    },
    {
      "constant": true,
      "inputs": [
        {
          "name": "_patient",
          "type": "address"
        }
      ],
      "name": "getPatient",
      "outputs": [
        {
          "name": "",
          "type": "string"
        }
      ],
      "payable": false,
      "stateMutability": "view",
      "type": "function"
    },
    {
      "constant": true,
      "inputs": [
        {
          "name": "_patient",
          "type": "address"
        },
        {
          "name": "_caregiver",
          "type": "address"
        }
      ],
      "name": "isCareGiver",
      "outputs": [
        {
          "name": "",
          "type": "bool"
        }
      ],
      "payable": false,
      "stateMutability": "view",
      "type": "function"
    },
    {
      "constant": true,
      "inputs": [
        {
          "name": "_caregiver",
          "type": "address"
        }
      ],
      "name": "getCareGiver",
      "outputs": [
        {
          "name": "",
          "type": "bool"
        }
      ],
      "payable": false,
      "stateMutability": "view",
      "type": "function"
    }
  ],
  "bytecode": "0x608060405234801561001057600080fd5b50611784806100206000396000f3006080604052600436106100c4576000357c0100000000000000000000000000000000000000000000000000000000900463ffffffff168062666b61146100c95780630bac5d261461010c578063104637f3146101955780631badf90614610210578063329c0f0f146102b95780633a2323ef146103145780637288739b146103775780637d0d62571461042a578063805a41ea1461046d5780638d24abc8146104b05780639cfb10b31461056c578063b5368e20146105cf578063c3dd17cd1461068b575b600080fd5b3480156100d557600080fd5b5061010a600480360381019080803573ffffffffffffffffffffffffffffffffffffffff1690602001909291905050506106e6565b005b34801561011857600080fd5b50610193600480360381019080803573ffffffffffffffffffffffffffffffffffffffff169060200190929190803590602001908201803590602001908080601f01602080910402602001604051908101604052809392919081815260200183838082843782019150505050505091929192905050506107fc565b005b3480156101a157600080fd5b506101f6600480360381019080803573ffffffffffffffffffffffffffffffffffffffff169060200190929190803573ffffffffffffffffffffffffffffffffffffffff1690602001909291905050506109d2565b604051808215151515815260200191505060405180910390f35b34801561021c57600080fd5b506102b7600480360381019080803573ffffffffffffffffffffffffffffffffffffffff169060200190929190803573ffffffffffffffffffffffffffffffffffffffff169060200190929190803590602001908201803590602001908080601f0160208091040260200160405190810160405280939291908181526020018383808284378201915050505050509192919290505050610a68565b005b3480156102c557600080fd5b506102fa600480360381019080803573ffffffffffffffffffffffffffffffffffffffff169060200190929190505050610bef565b604051808215151515815260200191505060405180910390f35b34801561032057600080fd5b50610375600480360381019080803573ffffffffffffffffffffffffffffffffffffffff169060200190929190803573ffffffffffffffffffffffffffffffffffffffff169060200190929190505050610c0f565b005b34801561038357600080fd5b50610428600480360381019080803573ffffffffffffffffffffffffffffffffffffffff169060200190929190803573ffffffffffffffffffffffffffffffffffffffff169060200190929190803590602001908201803590602001908080601f016020809104026020016040519081016040528093929190818152602001838380828437820191505050505050919291929080359060200190929190505050610cbf565b005b34801561043657600080fd5b5061046b600480360381019080803573ffffffffffffffffffffffffffffffffffffffff169060200190929190505050610ead565b005b34801561047957600080fd5b506104ae600480360381019080803573ffffffffffffffffffffffffffffffffffffffff16906020019092919050505061107a565b005b3480156104bc57600080fd5b506104f1600480360381019080803573ffffffffffffffffffffffffffffffffffffffff169060200190929190505050611190565b6040518080602001828103825283818151815260200191508051906020019080838360005b83811015610531578082015181840152602081019050610516565b50505050905090810190601f16801561055e5780820380516001836020036101000a031916815260200191505b509250505060405180910390f35b34801561057857600080fd5b506105cd600480360381019080803573ffffffffffffffffffffffffffffffffffffffff169060200190929190803573ffffffffffffffffffffffffffffffffffffffff169060200190929190505050611246565b005b3480156105db57600080fd5b50610610600480360381019080803573ffffffffffffffffffffffffffffffffffffffff16906020019092919050505061138e565b6040518080602001828103825283818151815260200191508051906020019080838360005b83811015610650578082015181840152602081019050610635565b50505050905090810190601f16801561067d5780820380516001836020036101000a031916815260200191505b509250505060405180910390f35b34801561069757600080fd5b506106cc600480360381019080803573ffffffffffffffffffffffffffffffffffffffff169060200190929190505050611471565b604051808215151515815260200191505060405180910390f35b600160008273ffffffffffffffffffffffffffffffffffffffff1673ffffffffffffffffffffffffffffffffffffffff16815260200190815260200160002060009054906101000a900460ff1615151561073f57600080fd5b60018060008373ffffffffffffffffffffffffffffffffffffffff1673ffffffffffffffffffffffffffffffffffffffff16815260200190815260200160002060006101000a81548160ff0219169083151502179055507f8bb4d7c3e1f3ab9d296812329f23c60219a5655c0358f53be7d85b261601291181604051808273ffffffffffffffffffffffffffffffffffffffff1673ffffffffffffffffffffffffffffffffffffffff16815260200191505060405180910390a150565b61080461168b565b6108f76000808573ffffffffffffffffffffffffffffffffffffffff1673ffffffffffffffffffffffffffffffffffffffff1681526020019081526020016000206000018054600181600116156101000203166002900480601f0160208091040260200160405190810160405280929190818152602001828054600181600116156101000203166002900480156108dc5780601f106108b1576101008083540402835291602001916108dc565b820191906000526020600020905b8154815290600101906020018083116108bf57829003601f168201915b505050505060206040519081016040528060008152506114c7565b151561090257600080fd5b818160000181905250806000808573ffffffffffffffffffffffffffffffffffffffff1673ffffffffffffffffffffffffffffffffffffffff168152602001908152602001600020600082015181600001908051906020019061096692919061169f565b509050507f0d91b321c28c7b9fb66c9ba5ff33e899a86f5f6b5e28e9ff106900d66844bc5683604051808273ffffffffffffffffffffffffffffffffffffffff1673ffffffffffffffffffffffffffffffffffffffff16815260200191505060405180910390a1505050565b60008060008473ffffffffffffffffffffffffffffffffffffffff1673ffffffffffffffffffffffffffffffffffffffff16815260200190815260200160002060010160008373ffffffffffffffffffffffffffffffffffffffff1673ffffffffffffffffffffffffffffffffffffffff16815260200190815260200160002060009054906101000a900460ff16905092915050565b610a7282846115a0565b8015610b2c575060008060008473ffffffffffffffffffffffffffffffffffffffff1673ffffffffffffffffffffffffffffffffffffffff168152602001908152602001600020600201826040518082805190602001908083835b602083101515610af25780518252602082019150602081019050602083039250610acd565b6001836020036101000a03801982511681845116808217855250505050505090500191505090815260200160405180910390206000015414155b1515610b3757600080fd5b60008060008473ffffffffffffffffffffffffffffffffffffffff1673ffffffffffffffffffffffffffffffffffffffff168152602001908152602001600020600201826040518082805190602001908083835b602083101515610bb05780518252602082019150602081019050602083039250610b8b565b6001836020036101000a038019825116818451168082178552505050505050905001915050908152602001604051809103902060000181905550505050565b60016020528060005260406000206000915054906101000a900460ff1681565b610c1981836115a0565b1515610c2457600080fd5b60008060008373ffffffffffffffffffffffffffffffffffffffff1673ffffffffffffffffffffffffffffffffffffffff16815260200190815260200160002060010160008473ffffffffffffffffffffffffffffffffffffffff1673ffffffffffffffffffffffffffffffffffffffff16815260200190815260200160002060006101000a81548160ff0219169083151502179055505050565b610cc761171f565b610cd184866115a0565b1515610cdc57600080fd5b806000015150806000808673ffffffffffffffffffffffffffffffffffffffff1673ffffffffffffffffffffffffffffffffffffffff168152602001908152602001600020600201846040518082805190602001908083835b602083101515610d5a5780518252602082019150602081019050602083039250610d35565b6001836020036101000a0380198251168184511680821785525050505050509050019150509081526020016040518091039020600082015181600001559050507fcc50abfab5835175b00279bfcaf452533c0017ab94483eb26c80deaa0d2e7cae85858585604051808573ffffffffffffffffffffffffffffffffffffffff1673ffffffffffffffffffffffffffffffffffffffff1681526020018473ffffffffffffffffffffffffffffffffffffffff1673ffffffffffffffffffffffffffffffffffffffff16815260200180602001838152602001828103825284818151815260200191508051906020019080838360005b83811015610e69578082015181840152602081019050610e4e565b50505050905090810190601f168015610e965780820380516001836020036101000a031916815260200191505b509550505050505060405180910390a15050505050565b610eb561168b565b610fa86000808473ffffffffffffffffffffffffffffffffffffffff1673ffffffffffffffffffffffffffffffffffffffff1681526020019081526020016000206000018054600181600116156101000203166002900480601f016020809104026020016040519081016040528092919081815260200182805460018160011615610100020316600290048015610f8d5780601f10610f6257610100808354040283529160200191610f8d565b820191906000526020600020905b815481529060010190602001808311610f7057829003601f168201915b505050505060206040519081016040528060008152506114c7565b151515610fb457600080fd5b806000808473ffffffffffffffffffffffffffffffffffffffff1673ffffffffffffffffffffffffffffffffffffffff168152602001908152602001600020600082015181600001908051906020019061100f92919061169f565b509050507f343022949cc978c63c513a3a39adf2c38e99a87fbce91af81a7acbc765affc7a82604051808273ffffffffffffffffffffffffffffffffffffffff1673ffffffffffffffffffffffffffffffffffffffff16815260200191505060405180910390a15050565b600160008273ffffffffffffffffffffffffffffffffffffffff1673ffffffffffffffffffffffffffffffffffffffff16815260200190815260200160002060009054906101000a900460ff1615156110d257600080fd5b6000600160008373ffffffffffffffffffffffffffffffffffffffff1673ffffffffffffffffffffffffffffffffffffffff16815260200190815260200160002060006101000a81548160ff0219169083151502179055507fe409a0e2ea9f7cb8ecad636111531fbbc43c1c075254c3d3327b354fd2adc16f81604051808273ffffffffffffffffffffffffffffffffffffffff1673ffffffffffffffffffffffffffffffffffffffff16815260200191505060405180910390a150565b6000602052806000526040600020600091509050806000018054600181600116156101000203166002900480601f01602080910402602001604051908101604052809291908181526020018280546001816001161561010002031660029004801561123c5780601f106112115761010080835404028352916020019161123c565b820191906000526020600020905b81548152906001019060200180831161121f57829003601f168201915b5050505050905081565b61125081836115a0565b15151561125c57600080fd5b60016000808373ffffffffffffffffffffffffffffffffffffffff1673ffffffffffffffffffffffffffffffffffffffff16815260200190815260200160002060010160008473ffffffffffffffffffffffffffffffffffffffff1673ffffffffffffffffffffffffffffffffffffffff16815260200190815260200160002060006101000a81548160ff0219169083151502179055507fa9b6fccca328a6890831d0f633e520dbdc3f8e5489eb06c2c1c05acaf5094bbc8282604051808373ffffffffffffffffffffffffffffffffffffffff1673ffffffffffffffffffffffffffffffffffffffff1681526020018273ffffffffffffffffffffffffffffffffffffffff1673ffffffffffffffffffffffffffffffffffffffff1681526020019250505060405180910390a15050565b60606000808373ffffffffffffffffffffffffffffffffffffffff1673ffffffffffffffffffffffffffffffffffffffff1681526020019081526020016000206000018054600181600116156101000203166002900480601f0160208091040260200160405190810160405280929190818152602001828054600181600116156101000203166002900480156114655780601f1061143a57610100808354040283529160200191611465565b820191906000526020600020905b81548152906001019060200180831161144857829003601f168201915b50505050509050919050565b6000600160008373ffffffffffffffffffffffffffffffffffffffff1673ffffffffffffffffffffffffffffffffffffffff16815260200190815260200160002060009054906101000a900460ff169050919050565b6000816040518082805190602001908083835b6020831015156114ff57805182526020820191506020810190506020830392506114da565b6001836020036101000a038019825116818451168082178552505050505050905001915050604051809103902060001916836040518082805190602001908083835b6020831015156115665780518252602082019150602081019050602083039250611541565b6001836020036101000a03801982511681845116808217855250505050505090500191505060405180910390206000191614905092915050565b6000600160008373ffffffffffffffffffffffffffffffffffffffff1673ffffffffffffffffffffffffffffffffffffffff16815260200190815260200160002060009054906101000a900460ff16801561168357506000808473ffffffffffffffffffffffffffffffffffffffff1673ffffffffffffffffffffffffffffffffffffffff16815260200190815260200160002060010160008373ffffffffffffffffffffffffffffffffffffffff1673ffffffffffffffffffffffffffffffffffffffff16815260200190815260200160002060009054906101000a900460ff165b905092915050565b602060405190810160405280606081525090565b828054600181600116156101000203166002900490600052602060002090601f016020900481019282601f106116e057805160ff191683800117855561170e565b8280016001018555821561170e579182015b8281111561170d5782518255916020019190600101906116f2565b5b50905061171b9190611733565b5090565b602060405190810160405280600081525090565b61175591905b80821115611751576000816000905550600101611739565b5090565b905600a165627a7a72305820b53486ee73eccf02ca9925911ad206ef480a636ae74bdbdd16e8f2444148da3f0029",
  "source": "pragma solidity ^0.4.24;\n\ncontract Med_ETrack {\n\n   //mapping (address => uint) public patientNam;\n   mapping (address => Patient) public patientsMap;\n   mapping (address => bool) public careGiversMap;\n\n   struct Medication {\n      uint rate_dosage; //hours\n   }\n   \n   struct Patient {\n      string name;\n      mapping (address => bool) caregivers;\n      mapping (string => Medication) medications;\n   }\n\n   function verify(address patient, address caregiver) view internal returns(bool){\n      return careGiversMap[caregiver] && patientsMap[patient].caregivers[caregiver]; \n   }\n\n   event AddedPatient(address patient);\n\n   function newPatient(address sender, string _name) public {\n      //if patient not in map then add patient\n      require(strcmp(patientsMap[sender].name,\"\"));\n      Patient memory patient;\n      patient.name = _name;\n      patientsMap[sender] = patient;\n\n      emit AddedPatient(sender);\n   } \n\n   event AddedCareGiver(address sender);\n   \n   function newCareGiver(address sender) public {\n      //if caregiver not in map then add caregiver\n      require(!careGiversMap[sender]);\n      careGiversMap[sender] = true;\n\n      emit AddedCareGiver(sender);\n   }\n\n   event AddedCareGiverToPatient(address caregiver, address Patient);\n\n   function addCareGiverToPatient(address _caregiver, address _patient) public {\n      // if sender is a caretaker and patient exits\n      // then add caretaker to patient.careGivers\n      require(!verify(_patient, _caregiver));\n      patientsMap[_patient].caregivers[_caregiver] = true;\n\n      emit AddedCareGiverToPatient(_caregiver, _patient);\n   }\n\n   event RemovedCareGiverToPatient(address caregiver, address _patient);\n   \n   function removeCareGiverFromPatient(address _caregiver, address _patient) public {\n     require(verify(_patient, _caregiver));\n     patientsMap[_patient].caregivers[_caregiver] = false;\n   }\n\n   event AddedMedicationToPatient(address _caregiver, address _patient,\n\t\t\t\t  string _med, uint _dosage);\n   \n   function addMedicationToPatient(address _caregiver, address _patient, string _med, uint _dosage) public {\n      require(verify(_patient, _caregiver));\n\n      Medication memory med;\n      med.rate_dosage;\n      patientsMap[_patient].medications[_med] = med;\n\n      emit AddedMedicationToPatient(_caregiver, _patient, _med, _dosage);\n   }\n\n   event RemovedMedicationToPatient(address _caregiver, address _patient,\n\t\t\t\t  string _med, uint _dosage);\n   function removeMediacationFromPatient(address _caregiver, address _patient, string _med) public {\n      require(verify(_patient,_caregiver)\n\t      && patientsMap[_patient].medications[_med].rate_dosage != 0);\n      patientsMap[_patient].medications[_med].rate_dosage = 0;\n   }\n\n   event RemovedPatient(address _patient);\n   \n   function removePatient(address _patient) public {\n      require(!strcmp(patientsMap[_patient].name,\"\"));\n      Patient memory empty;\n      patientsMap[_patient] = empty;\n\n      emit RemovedPatient(_patient);\n   }\n\n   event RemovedCareGiver(address _caregiver);\n   \n   function removeCareGiver(address _caregiver) public {\n      require(careGiversMap[_caregiver]);\n      careGiversMap[_caregiver] = false;\n\n      emit RemovedCareGiver(_caregiver);\n   }\n     \n   // Helpers\n   function strcmp (string a, string b) internal pure returns(bool){\n      return keccak256(bytes(a)) == keccak256(bytes(b));\n   }\n\n   function getPatient(address _patient) public view returns(string){\n      return patientsMap[_patient].name;\n   }\n\n   function isCareGiver(address _patient, address _caregiver)  public view returns(bool){\n      return patientsMap[_patient].caregivers[_caregiver];\n   }\n\n   function getCareGiver(address _caregiver) public view returns(bool){\n      return careGiversMap[_caregiver];\n   }\n\n}\n",
  "sourcePath": "/home/drakemp/Dropbox/Med-ETrack/contracts/Med_ETrack.sol",
  "compiler": {
    "name": "solc",
    "version": "0.4.24+commit.e67f0147.Emscripten.clang"
  },
  "schemaVersion": "2.0.1",
  "updatedAt": "2018-07-08T02:49:33.159Z"
}