{
  "contractName": "Med_ETrack",
  "abi": [
    {
      "constant": true,
      "inputs": [
        {
          "name": "",
          "type": "address"
        }
      ],
      "name": "careGiversMap",
      "outputs": [
        {
          "name": "",
          "type": "bool"
        }
      ],
      "payable": false,
      "stateMutability": "view",
      "type": "function"
    },
    {
      "constant": true,
      "inputs": [
        {
          "name": "",
          "type": "address"
        }
      ],
      "name": "patientsMap",
      "outputs": [
        {
          "name": "name",
          "type": "string"
        }
      ],
      "payable": false,
      "stateMutability": "view",
      "type": "function"
    },
    {
      "anonymous": false,
      "inputs": [
        {
          "indexed": false,
          "name": "patient",
          "type": "address"
        }
      ],
      "name": "AddedPatient",
      "type": "event"
    },
    {
      "anonymous": false,
      "inputs": [
        {
          "indexed": false,
          "name": "sender",
          "type": "address"
        }
      ],
      "name": "AddedCareGiver",
      "type": "event"
    },
    {
      "anonymous": false,
      "inputs": [
        {
          "indexed": false,
          "name": "caregiver",
          "type": "address"
        },
        {
          "indexed": false,
          "name": "Patient",
          "type": "address"
        }
      ],
      "name": "AddedCareGiverToPatient",
      "type": "event"
    },
    {
      "anonymous": false,
      "inputs": [
        {
          "indexed": false,
          "name": "caregiver",
          "type": "address"
        },
        {
          "indexed": false,
          "name": "_patient",
          "type": "address"
        }
      ],
      "name": "RemovedCareGiverToPatient",
      "type": "event"
    },
    {
      "anonymous": false,
      "inputs": [
        {
          "indexed": false,
          "name": "_caregiver",
          "type": "address"
        },
        {
          "indexed": false,
          "name": "_patient",
          "type": "address"
        },
        {
          "indexed": false,
          "name": "_med",
          "type": "string"
        },
        {
          "indexed": false,
          "name": "_dosage",
          "type": "uint256"
        }
      ],
      "name": "AddedMedicationToPatient",
      "type": "event"
    },
    {
      "constant": false,
      "inputs": [
        {
          "name": "sender",
          "type": "address"
        },
        {
          "name": "_name",
          "type": "string"
        }
      ],
      "name": "newPatient",
      "outputs": [],
      "payable": false,
      "stateMutability": "nonpayable",
      "type": "function"
    },
    {
      "constant": false,
      "inputs": [
        {
          "name": "sender",
          "type": "address"
        }
      ],
      "name": "newCareGiver",
      "outputs": [],
      "payable": false,
      "stateMutability": "nonpayable",
      "type": "function"
    },
    {
      "constant": false,
      "inputs": [
        {
          "name": "_caregiver",
          "type": "address"
        },
        {
          "name": "_patient",
          "type": "address"
        }
      ],
      "name": "addCareGiverToPatient",
      "outputs": [],
      "payable": false,
      "stateMutability": "nonpayable",
      "type": "function"
    },
    {
      "constant": false,
      "inputs": [
        {
          "name": "_caregiver",
          "type": "address"
        },
        {
          "name": "_patient",
          "type": "address"
        }
      ],
      "name": "removeCareGiverFromPatient",
      "outputs": [],
      "payable": false,
      "stateMutability": "nonpayable",
      "type": "function"
    },
    {
      "constant": false,
      "inputs": [
        {
          "name": "_caregiver",
          "type": "address"
        },
        {
          "name": "_patient",
          "type": "address"
        },
        {
          "name": "_med",
          "type": "string"
        },
        {
          "name": "_dosage",
          "type": "uint256"
        }
      ],
      "name": "addMedicationToPatient",
      "outputs": [],
      "payable": false,
      "stateMutability": "nonpayable",
      "type": "function"
    },
    {
      "constant": false,
      "inputs": [
        {
          "name": "_patient",
          "type": "string"
        },
        {
          "name": "_med",
          "type": "string"
        }
      ],
      "name": "removeMediacationFromPatient",
      "outputs": [],
      "payable": false,
      "stateMutability": "nonpayable",
      "type": "function"
    },
    {
      "constant": false,
      "inputs": [
        {
          "name": "_patient",
          "type": "string"
        }
      ],
      "name": "viewMedication",
      "outputs": [],
      "payable": false,
      "stateMutability": "nonpayable",
      "type": "function"
    },
    {
      "constant": false,
      "inputs": [
        {
          "name": "_patient",
          "type": "string"
        }
      ],
      "name": "viewCareGiver",
      "outputs": [],
      "payable": false,
      "stateMutability": "nonpayable",
      "type": "function"
    },
    {
      "constant": true,
      "inputs": [
        {
          "name": "_patient",
          "type": "address"
        }
      ],
      "name": "getPatient",
      "outputs": [
        {
          "name": "",
          "type": "string"
        }
      ],
      "payable": false,
      "stateMutability": "view",
      "type": "function"
    },
    {
      "constant": true,
      "inputs": [
        {
          "name": "_patient",
          "type": "address"
        },
        {
          "name": "_caregiver",
          "type": "address"
        }
      ],
      "name": "isCareGiver",
      "outputs": [
        {
          "name": "",
          "type": "bool"
        }
      ],
      "payable": false,
      "stateMutability": "view",
      "type": "function"
    },
    {
      "constant": true,
      "inputs": [
        {
          "name": "_caregiver",
          "type": "address"
        }
      ],
      "name": "getCareGiver",
      "outputs": [
        {
          "name": "",
          "type": "bool"
        }
      ],
      "payable": false,
      "stateMutability": "view",
      "type": "function"
    },
    {
      "constant": true,
      "inputs": [
        {
          "name": "_patient",
          "type": "address"
        },
        {
          "name": "_med",
          "type": "string"
        }
      ],
      "name": "hasMedication",
      "outputs": [
        {
          "name": "",
          "type": "string"
        }
      ],
      "payable": false,
      "stateMutability": "view",
      "type": "function"
    }
  ],
  "bytecode": "0x608060405234801561001057600080fd5b506115aa806100206000396000f3006080604052600436106100cf576000357c0100000000000000000000000000000000000000000000000000000000900463ffffffff168062666b61146100d45780630bac5d2614610117578063104637f3146101a0578063329c0f0f1461021b5780633a2323ef146102765780633c12b19c146102d957806341b61266146103885780637288739b146103f15780638d24abc8146104a45780639cfb10b314610560578063b5368e20146105c3578063c3dd17cd1461067f578063cfb747db146106da578063fe17df4c146107dc575b600080fd5b3480156100e057600080fd5b50610115600480360381019080803573ffffffffffffffffffffffffffffffffffffffff169060200190929190505050610845565b005b34801561012357600080fd5b5061019e600480360381019080803573ffffffffffffffffffffffffffffffffffffffff169060200190929190803590602001908201803590602001908080601f016020809104026020016040519081016040528093929190818152602001838380828437820191505050505050919291929050505061095b565b005b3480156101ac57600080fd5b50610201600480360381019080803573ffffffffffffffffffffffffffffffffffffffff169060200190929190803573ffffffffffffffffffffffffffffffffffffffff169060200190929190505050610b31565b604051808215151515815260200191505060405180910390f35b34801561022757600080fd5b5061025c600480360381019080803573ffffffffffffffffffffffffffffffffffffffff169060200190929190505050610bc7565b604051808215151515815260200191505060405180910390f35b34801561028257600080fd5b506102d7600480360381019080803573ffffffffffffffffffffffffffffffffffffffff169060200190929190803573ffffffffffffffffffffffffffffffffffffffff169060200190929190505050610be7565b005b3480156102e557600080fd5b50610386600480360381019080803590602001908201803590602001908080601f0160208091040260200160405190810160405280939291908181526020018383808284378201915050505050509192919290803590602001908201803590602001908080601f0160208091040260200160405190810160405280939291908181526020018383808284378201915050505050509192919290505050610c97565b005b34801561039457600080fd5b506103ef600480360381019080803590602001908201803590602001908080601f0160208091040260200160405190810160405280939291908181526020018383808284378201915050505050509192919290505050610c9b565b005b3480156103fd57600080fd5b506104a2600480360381019080803573ffffffffffffffffffffffffffffffffffffffff169060200190929190803573ffffffffffffffffffffffffffffffffffffffff169060200190929190803590602001908201803590602001908080601f016020809104026020016040519081016040528093929190818152602001838380828437820191505050505050919291929080359060200190929190505050610c9e565b005b3480156104b057600080fd5b506104e5600480360381019080803573ffffffffffffffffffffffffffffffffffffffff169060200190929190505050610eb2565b6040518080602001828103825283818151815260200191508051906020019080838360005b8381101561052557808201518184015260208101905061050a565b50505050905090810190601f1680156105525780820380516001836020036101000a031916815260200191505b509250505060405180910390f35b34801561056c57600080fd5b506105c1600480360381019080803573ffffffffffffffffffffffffffffffffffffffff169060200190929190803573ffffffffffffffffffffffffffffffffffffffff169060200190929190505050610f68565b005b3480156105cf57600080fd5b50610604600480360381019080803573ffffffffffffffffffffffffffffffffffffffff1690602001909291905050506110b0565b6040518080602001828103825283818151815260200191508051906020019080838360005b83811015610644578082015181840152602081019050610629565b50505050905090810190601f1680156106715780820380516001836020036101000a031916815260200191505b509250505060405180910390f35b34801561068b57600080fd5b506106c0600480360381019080803573ffffffffffffffffffffffffffffffffffffffff169060200190929190505050611193565b604051808215151515815260200191505060405180910390f35b3480156106e657600080fd5b50610761600480360381019080803573ffffffffffffffffffffffffffffffffffffffff169060200190929190803590602001908201803590602001908080601f01602080910402602001604051908101604052809392919081815260200183838082843782019150505050505091929192905050506111e9565b6040518080602001828103825283818151815260200191508051906020019080838360005b838110156107a1578082015181840152602081019050610786565b50505050905090810190601f1680156107ce5780820380516001836020036101000a031916815260200191505b509250505060405180910390f35b3480156107e857600080fd5b50610843600480360381019080803590602001908201803590602001908080601f0160208091040260200160405190810160405280939291908181526020018383808284378201915050505050509192919290505050611339565b005b600160008273ffffffffffffffffffffffffffffffffffffffff1673ffffffffffffffffffffffffffffffffffffffff16815260200190815260200160002060009054906101000a900460ff1615151561089e57600080fd5b60018060008373ffffffffffffffffffffffffffffffffffffffff1673ffffffffffffffffffffffffffffffffffffffff16815260200190815260200160002060006101000a81548160ff0219169083151502179055507f8bb4d7c3e1f3ab9d296812329f23c60219a5655c0358f53be7d85b261601291181604051808273ffffffffffffffffffffffffffffffffffffffff1673ffffffffffffffffffffffffffffffffffffffff16815260200191505060405180910390a150565b6109636114ab565b610a566000808573ffffffffffffffffffffffffffffffffffffffff1673ffffffffffffffffffffffffffffffffffffffff1681526020019081526020016000206000018054600181600116156101000203166002900480601f016020809104026020016040519081016040528092919081815260200182805460018160011615610100020316600290048015610a3b5780601f10610a1057610100808354040283529160200191610a3b565b820191906000526020600020905b815481529060010190602001808311610a1e57829003601f168201915b5050505050602060405190810160405280600081525061133c565b1515610a6157600080fd5b818160000181905250806000808573ffffffffffffffffffffffffffffffffffffffff1673ffffffffffffffffffffffffffffffffffffffff1681526020019081526020016000206000820151816000019080519060200190610ac59291906114bf565b509050507f0d91b321c28c7b9fb66c9ba5ff33e899a86f5f6b5e28e9ff106900d66844bc5683604051808273ffffffffffffffffffffffffffffffffffffffff1673ffffffffffffffffffffffffffffffffffffffff16815260200191505060405180910390a1505050565b60008060008473ffffffffffffffffffffffffffffffffffffffff1673ffffffffffffffffffffffffffffffffffffffff16815260200190815260200160002060010160008373ffffffffffffffffffffffffffffffffffffffff1673ffffffffffffffffffffffffffffffffffffffff16815260200190815260200160002060009054906101000a900460ff16905092915050565b60016020528060005260406000206000915054906101000a900460ff1681565b610bf18183611415565b1515610bfc57600080fd5b60008060008373ffffffffffffffffffffffffffffffffffffffff1673ffffffffffffffffffffffffffffffffffffffff16815260200190815260200160002060010160008473ffffffffffffffffffffffffffffffffffffffff1673ffffffffffffffffffffffffffffffffffffffff16815260200190815260200160002060006101000a81548160ff0219169083151502179055505050565b5050565b50565b610ca661153f565b610cb08486611415565b1515610cbb57600080fd5b828160000181905250806020015150806000808673ffffffffffffffffffffffffffffffffffffffff1673ffffffffffffffffffffffffffffffffffffffff168152602001908152602001600020600201846040518082805190602001908083835b602083101515610d425780518252602082019150602081019050602083039250610d1d565b6001836020036101000a03801982511681845116808217855250505050505090500191505090815260200160405180910390206000820151816000019080519060200190610d919291906114bf565b50602082015181600101559050507fcc50abfab5835175b00279bfcaf452533c0017ab94483eb26c80deaa0d2e7cae85858585604051808573ffffffffffffffffffffffffffffffffffffffff1673ffffffffffffffffffffffffffffffffffffffff1681526020018473ffffffffffffffffffffffffffffffffffffffff1673ffffffffffffffffffffffffffffffffffffffff16815260200180602001838152602001828103825284818151815260200191508051906020019080838360005b83811015610e6e578082015181840152602081019050610e53565b50505050905090810190601f168015610e9b5780820380516001836020036101000a031916815260200191505b509550505050505060405180910390a15050505050565b6000602052806000526040600020600091509050806000018054600181600116156101000203166002900480601f016020809104026020016040519081016040528092919081815260200182805460018160011615610100020316600290048015610f5e5780601f10610f3357610100808354040283529160200191610f5e565b820191906000526020600020905b815481529060010190602001808311610f4157829003601f168201915b5050505050905081565b610f728183611415565b151515610f7e57600080fd5b60016000808373ffffffffffffffffffffffffffffffffffffffff1673ffffffffffffffffffffffffffffffffffffffff16815260200190815260200160002060010160008473ffffffffffffffffffffffffffffffffffffffff1673ffffffffffffffffffffffffffffffffffffffff16815260200190815260200160002060006101000a81548160ff0219169083151502179055507fa9b6fccca328a6890831d0f633e520dbdc3f8e5489eb06c2c1c05acaf5094bbc8282604051808373ffffffffffffffffffffffffffffffffffffffff1673ffffffffffffffffffffffffffffffffffffffff1681526020018273ffffffffffffffffffffffffffffffffffffffff1673ffffffffffffffffffffffffffffffffffffffff1681526020019250505060405180910390a15050565b60606000808373ffffffffffffffffffffffffffffffffffffffff1673ffffffffffffffffffffffffffffffffffffffff1681526020019081526020016000206000018054600181600116156101000203166002900480601f0160208091040260200160405190810160405280929190818152602001828054600181600116156101000203166002900480156111875780601f1061115c57610100808354040283529160200191611187565b820191906000526020600020905b81548152906001019060200180831161116a57829003601f168201915b50505050509050919050565b6000600160008373ffffffffffffffffffffffffffffffffffffffff1673ffffffffffffffffffffffffffffffffffffffff16815260200190815260200160002060009054906101000a900460ff169050919050565b60606000808473ffffffffffffffffffffffffffffffffffffffff1673ffffffffffffffffffffffffffffffffffffffff168152602001908152602001600020600201826040518082805190602001908083835b602083101515611262578051825260208201915060208101905060208303925061123d565b6001836020036101000a03801982511681845116808217855250505050505090500191505090815260200160405180910390206000018054600181600116156101000203166002900480601f01602080910402602001604051908101604052809291908181526020018280546001816001161561010002031660029004801561132c5780601f106113015761010080835404028352916020019161132c565b820191906000526020600020905b81548152906001019060200180831161130f57829003601f168201915b5050505050905092915050565b50565b6000816040518082805190602001908083835b602083101515611374578051825260208201915060208101905060208303925061134f565b6001836020036101000a038019825116818451168082178552505050505050905001915050604051809103902060001916836040518082805190602001908083835b6020831015156113db57805182526020820191506020810190506020830392506113b6565b6001836020036101000a03801982511681845116808217855250505050505090500191505060405180910390206000191614905092915050565b60008060008473ffffffffffffffffffffffffffffffffffffffff1673ffffffffffffffffffffffffffffffffffffffff16815260200190815260200160002060010160008373ffffffffffffffffffffffffffffffffffffffff1673ffffffffffffffffffffffffffffffffffffffff16815260200190815260200160002060009054906101000a900460ff16905092915050565b602060405190810160405280606081525090565b828054600181600116156101000203166002900490600052602060002090601f016020900481019282601f1061150057805160ff191683800117855561152e565b8280016001018555821561152e579182015b8281111561152d578251825591602001919060010190611512565b5b50905061153b9190611559565b5090565b604080519081016040528060608152602001600081525090565b61157b91905b8082111561157757600081600090555060010161155f565b5090565b905600a165627a7a72305820c3b395b35c8284d3aa0a4ecd59b8579bd5ba06fcdd551914d3c595f618f9c5750029",
  "source": "pragma solidity ^0.4.24;\n\ncontract Med_ETrack {\n\n   //mapping (address => uint) public patientNam;\n   mapping (address => Patient) public patientsMap;\n   mapping (address => bool) public careGiversMap;\n\n   struct Medication {\n      string name;\n      uint rate_dosage; //hours\n   }\n   \n   struct Patient {\n      string name;\n      mapping (address => bool) caregivers;\n      mapping (string => Medication) medications;\n   }\n\n   function verify(address patient, address caregiver) view internal returns(bool){\n      return patientsMap[patient].caregivers[caregiver]; //fix\n   }\n\n   event AddedPatient(address patient);\n\n   function newPatient(address sender, string _name) public {\n      //if patient not in map then add patient\n      require(strcmp(patientsMap[sender].name,\"\"));\n      Patient memory patient;\n      patient.name = _name;\n      patientsMap[sender] = patient;\n\n      emit AddedPatient(sender);\n   } \n\n   event AddedCareGiver(address sender);\n   \n   function newCareGiver(address sender) public {\n      //if caregiver not in map then add caregiver\n      require(!careGiversMap[sender]);\n      careGiversMap[sender] = true;\n\n      emit AddedCareGiver(sender);\n   }\n\n   event AddedCareGiverToPatient(address caregiver, address Patient);\n\n   function addCareGiverToPatient(address _caregiver, address _patient) public {\n      // if sender is a caretaker and patient exits\n      // then add caretaker to patient.careGivers\n      require(!verify(_patient, _caregiver));\n      patientsMap[_patient].caregivers[_caregiver] = true;\n\n      emit AddedCareGiverToPatient(_caregiver, _patient);\n   }\n\n   event RemovedCareGiverToPatient(address caregiver, address _patient);\n   \n   function removeCareGiverFromPatient(address _caregiver, address _patient) public {\n     require(verify(_patient, _caregiver));\n     patientsMap[_patient].caregivers[_caregiver] = false;\n   }\n\n   event AddedMedicationToPatient(address _caregiver, address _patient,\n\t\t\t\t  string _med, uint _dosage);\n   \n   function addMedicationToPatient(address _caregiver, address _patient,\n\t\t\t\t   string _med, uint _dosage) public {\n      require(verify(_patient, _caregiver));\n\n      Medication memory med;\n      med.name = _med;\n      med.rate_dosage;\n      patientsMap[_patient].medications[_med] = med;\n\n      emit AddedMedicationToPatient(_caregiver, _patient, _med, _dosage);\n   }\n\n   function removeMediacationFromPatient(string _patient, string _med) public {\n\n   }\n   \n   function viewMedication(string _patient) public{\n\n   }\n   \n   function viewCareGiver(string _patient) public {\n\n   }\n\n   // Helpers\n   function strcmp (string a, string b) internal pure returns(bool){\n      return keccak256(bytes(a)) == keccak256(bytes(b));\n   }\n\n   function getPatient(address _patient) public view returns(string){\n      return patientsMap[_patient].name;\n   }\n\n   function isCareGiver(address _patient, address _caregiver)  public view returns(bool){\n      return patientsMap[_patient].caregivers[_caregiver];\n   }\n\n   function getCareGiver(address _caregiver) public view returns(bool){\n      return careGiversMap[_caregiver];\n   }\n\n   function hasMedication(address _patient, string _med) public view returns(string){\n      return patientsMap[_patient].medications[_med].name;\n   }\n\n}\n",
  "sourcePath": "/home/drakemp/Dropbox/Med-ETrack/contracts/Med_ETrack.sol",
  "compiler": {
    "name": "solc",
    "version": "0.4.24+commit.e67f0147.Emscripten.clang"
  },
  "schemaVersion": "2.0.1",
  "updatedAt": "2018-07-08T01:18:15.380Z"
}